:020000040802F0
:1000000000040020B10B0208E10C02089001020874
:10001000E10C0208E10C0208E10C0208E10C020804
:10002000E10C0208E10C0208E10C0208310D0208A3
:10003000E10C0208E10C0208E10C0208010D0208C3
:10004000E10C0208714D0208E10C0208B14E0208F1
:10005000E10C0208E10C0208314A0208714A020868
:10006000B14A0208F14A0208314B0208813A0208FB
:10007000E13A0208413B0208A13B0208013C0208A8
:10008000613C0208C13C0208E1450208E10C02089B
:10009000E10C0208E10C0208E10C0208714B0208B5
:1000A000E10C020871670208E10C0208916702087E
:1000B00021640208E10C0208E10C0208E10C0208CC
:1000C000E10C0208E10C0208E10C0208E10C020854
:1000D000E10C0208316B0208516B0208E10C0208C6
:1000E000614C0208B14D0208F14D0208E10C020812
:1000F000E10C020841640208E10C0208213D0208FB
:10010000E10C020801560208E10C0208E10C0208A9
:10011000E10C0208E10C0208E10C0208E10C020803
:10012000813D0208E13D0208413E0208A13E02086D
:10013000013F0208E10C0208314E0208E10C0208FE
:10014000E10C0208E10C0208E10C0208E10C0208D3
:10015000613F0208C13F020821400208716B02089A
:10016000E10C0208E10C0208E10C0208E10C0208B3
:10017000714E0208E10C0208E10C0208E10C0208D1
:08018000E10C0208E10C020889
:100190001EF0040F0CBFEFF30880EFF3098007F0A7
:1001A00087BD00000000000000000000000000000B
:1001B00081F0004102E000BF83F0004330B54FEA18
:1001C00041044FEA430594EA050F08BF90EA020F85
:1001D0001FBF54EA000C55EA020C7FEA645C7FEA18
:1001E000655C00F0E2804FEA5454D4EB5555B8BF3B
:1001F0006D420CDD2C4480EA020281EA030382EAAC
:10020000000083EA010180EA020281EA0303362D3D
:1002100088BF30BD11F0004F4FEA01314FF4801C10
:100220004CEA113102D0404261EB410113F0004F22
:100230004FEA03334CEA133302D0524263EB4303D9
:1002400094EA050F00F0A780A4F10104D5F1200E77
:100250000DDB02FA0EFC22FA05F2801841F10001D2
:1002600003FA0EF2801843FA05F359410EE0A5F1A6
:1002700020050EF1200E012A03FA0EFC28BF4CF0D7
:10028000020C43FA05F3C01851EBE37101F000458D
:1002900007D54FF0000EDCF1000C7EEB00006EEB9A
:1002A0000101B1F5801F1BD3B1F5001F0CD3490824
:1002B0005FEA30004FEA3C0C04F101044FEA44527B
:1002C00012F5800F80F09A80BCF1004F08BF5FEA02
:1002D000500C50F1000041EB045141EA050130BDE2
:1002E0005FEA4C0C404141EB010111F4801FA4F185
:1002F0000104E9D191F0000F04BF01460020B1FADA
:1003000081F308BF2033A3F10B03B3F120020CDA11
:100310000C3208DD02F1140CC2F10C0201FA0CF0EF
:1003200021FA02F10CE002F11402D8BFC2F1200C54
:1003300001FA02F120FA0CFCDCBF41EA0C0190400A
:10034000E41AA2BF01EB0451294330BD6FEA040453
:100350001F3C1CDA0C340EDC04F11404C4F120023E
:1003600020FA04F001FA02F340EA030021FA04F350
:1003700045EA030130BDC4F10C04C4F1200220FAA7
:1003800002F001FA04F340EA0300294630BD21FAE5
:1003900004F0294630BD94F0000F83F4801306BFAB
:1003A00081F480110134013D4EE77FEA645C18BF9F
:1003B0007FEA655C29D094EA050F08BF90EA020F36
:1003C00005D054EA000C04BF1946104630BD91EA2E
:1003D000030F1EBF0021002030BD5FEA545C05D131
:1003E0004000494128BF41F0004130BD14F5800470
:1003F0003CBF01F5801130BD01F0004545F0FE41E4
:1004000041F470014FF0000030BD7FEA645C1ABF18
:10041000194610467FEA655C1CBF0B46024650EA4F
:10042000013406BF52EA033591EA030F41F400217B
:1004300030BD00BF90F0000F04BF0021704730B501
:100440004FF4806404F132044FF000054FF00001D6
:1004500050E700BF90F0000F04BF0021704730B597
:100460004FF4806404F1320410F0004548BF40426C
:100470004FF000013EE700BF42004FEAE2014FEAC1
:1004800031014FEA02701FBF12F07F4393F07F4F9C
:1004900081F06051704792F0000F14BF93F07F4FCE
:1004A000704730B54FF4607401F0004521F0004111
:1004B00020E700BF50EA010208BF704730B54FF097
:1004C00000050AE050EA010208BF704730B511F09C
:1004D000004502D5404261EB41014FF4806404F1D4
:1004E00032045FEA915C3FF4DCAE4FF003025FEA56
:1004F000DC0C18BF03325FEADC0C18BF033202EBDE
:10050000DC02C2F1200300FA03FC20FA02F001FA37
:1005100003FE40EA0E0021FA02F11444C1E600BFD6
:1005200070B54FF0FF0C4CF4E06C1CEA11541DBF89
:100530001CEA135594EA0C0F95EA0C0F00F0DEF854
:100540002C4481EA030621EA4C5123EA4C5350EA39
:10055000013518BF52EA033541F4801143F480138A
:1005600038D0A0FB02CE4FF00005E1FB02E506F01B
:100570000042E0FB03E54FF00006E1FB03569CF070
:10058000000F18BF4EF0010EA4F1FF04B6F5007F76
:1005900064F5407404D25FEA4E0E6D4146EB0606E8
:1005A00042EAC62141EA55514FEAC52040EA5E5071
:1005B0004FEACE2EB4F1FD0C88BFBCF5E06F1ED81B
:1005C000BEF1004F08BF5FEA500E50F1000041EB52
:1005D000045170BD06F0004646EA010140EA0200FF
:1005E00081EA0301B4EB5C04C2BFD4EB0C0541EA21
:1005F000045170BD41F480114FF0000E013C00F336
:10060000AB8014F1360FDEBF002001F0004170BD59
:10061000C4F10004203C35DA0C341BDC04F1140472
:10062000C4F1200500FA05F320FA04F001FA05F2FE
:1006300040EA020001F0004221F0004110EBD370CB
:1006400021FA04F642EB06015EEA430E08BF20EAF7
:10065000D37070BDC4F10C04C4F1200500FA04F39A
:1006600020FA05F001FA04F240EA020001F000412C
:1006700010EBD37041F100015EEA430E08BF20EA9F
:10068000D37070BDC4F1200500FA05F24EEA020EE7
:1006900020FA04F301FA05F243EA020321FA04F016
:1006A00001F0004121FA04F220EA020000EBD370CD
:1006B0005EEA430E08BF20EAD37070BD94F0000FCD
:1006C0000FD101F00046400041EB010111F4801F01
:1006D00008BF013CF7D041EA060195F0000F18BFB2
:1006E000704703F00046520043EB030313F4801FEE
:1006F00008BF013DF7D043EA0603704794EA0C0FA8
:100700000CEA135518BF95EA0C0F0CD050EA4106BD
:1007100018BF52EA4306D1D181EA030101F000413A
:100720004FF0000070BD50EA410606BF1046194662
:1007300052EA430619D094EA0C0F02D150EA01366E
:1007400013D195EA0C0F05D152EA03361CBF1046AF
:1007500019460AD181EA030101F0004141F0FE414E
:1007600041F470014FF0000070BD41F0FE4141F4D2
:10077000780170BD70B54FF0FF0C4CF4E06C1CEAD2
:1007800011541DBF1CEA135594EA0C0F95EA0C0F87
:1007900000F0A7F8A4EB050481EA030E52EA033542
:1007A0004FEA013100F088804FEA03334FF0805563
:1007B00045EA131343EA12634FEA022245EA111590
:1007C00045EA10654FEA00260EF000419D4208BF41
:1007D000964244F1FD0404F5407402D25B084FEAEE
:1007E0003202B61A65EB03055B084FEA32024FF49A
:1007F00080104FF4002CB6EB020E75EB030E22BFF7
:10080000B61A754640EA0C005B084FEA3202B6EBB6
:10081000020E75EB030E22BFB61A754640EA5C0065
:100820005B084FEA3202B6EB020E75EB030E22BFF5
:10083000B61A754640EA9C005B084FEA3202B6EBF6
:10084000020E75EB030E22BFB61A754640EADC00B5
:1008500055EA060E18D04FEA051545EA16754FEA17
:1008600006164FEAC30343EA52734FEAC2025FEA35
:100870001C1CC0D111F4801F0BD141EA00014FF0C4
:1008800000004FF0004CB6E711F4801F04BF014395
:100890000020B4F1FD0C88BFBCF5E06F3FF6AFAEB1
:1008A000B5EB030C04BFB6EB020C5FEA500C50F141
:1008B000000041EB045170BD0EF0004E4EEA1131C4
:1008C00014EB5C04C2BFD4EB0C0541EA045170BDCB
:1008D00041F480114FF0000E013C90E645EA060E0F
:1008E0008DE60CEA135594EA0C0F08BF95EA0C0F3D
:1008F0003FF43BAF94EA0C0F0AD150EA01347FF485
:1009000034AF95EA0C0F7FF425AF104619462CE75B
:1009100095EA0C0F06D152EA03353FF4FDAE1046BE
:10092000194622E750EA410618BF52EA43067FF40F
:10093000C5AE50EA41047FF40DAF52EA43057FF49F
:10094000EBAE12E700000000000000000000000015
:100950004FF0FF3C06E000BF4FF0010C02E000BF8B
:100960004FF0010C4DF804CD4FEA410C7FEA6C5C6E
:100970004FEA430C18BF7FEA6C5C1BD001B050EA11
:10098000410C0CBF52EA430C91EA030F02BF90EAFC
:10099000020F0020704710F1000F91EA030F58BFBB
:1009A000994208BF90422CBFD8176FEAE37040F01D
:1009B000010070474FEA410C7FEA6C5C02D150EABB
:1009C000013C07D14FEA430C7FEA6C5CD6D152EA76
:1009D000033CD3D05DF8040B704700BF844610463B
:1009E00062468C461946634600E000BF01B5FFF73A
:1009F000B7FF002848BF10F1000F01BD4DF808ED0A
:100A0000FFF7F4FF0CBF012000205DF808FB00BFDA
:100A10004DF808EDFFF7EAFF34BF012000205DF834
:100A200008FB00BF4DF808EDFFF7E0FF94BF012081
:100A300000205DF808FB00BF4DF808EDFFF7CEFF82
:100A400094BF012000205DF808FB00BF4DF808EDC1
:100A5000FFF7C4FF34BF012000205DF808FB00BF92
:100A60004FEA410212F5001215D211D56FF47873D6
:100A7000B3EB625212D94FEAC12343F0004343EA79
:100A8000505311F0004F23FA02F018BF4042704754
:100A90004FF00000704750EA013005D111F00040DE
:100AA00008BF6FF0004070474FF00000704700BF74
:100AB0004A0011D212F5001211D20DD56FF47873DD
:100AC000B3EB62520ED44FEAC12343F0004343EA32
:100AD000505323FA02F070474FF00000704750EA7D
:100AE000013002D14FF0FF3070474FF000007047E7
:100AF0004FEA4102B2F1E04324BFB3F5001CDCF140
:100B0000FE5C0DD901F0004C4FEAC0024CEA507077
:100B1000B2F1004F40EB830008BF20F001007047A6
:100B200011F0804F21D113F13872BCBF01F00040A9
:100B3000704741F480114FEA5252C2F11802C2F1DB
:100B4000200C10FA0CF320FA02F018BF40F001005C
:100B50004FEAC1234FEAD32303FA0CFC40EA0C000E
:100B600023FA02F34FEA4303CCE77FEA625307D14B
:100B700050EA01331EBF4FF0FE4040F44000704782
:100B800001F0004040F0FE4040F40000704700BF1C
:100B9000704700BFAFF30080AFF30080AFF3008079
:100BA000FEE700BFAFF30080AFF30080AFF300803B
:100BB00072B640F60004C2F2000484F309884EF6CF
:100BC0003473CEF200034FF040421A604EF6885361
:100BD000CEF200034EF68852CEF20002126842F4C2
:100BE00070021A604FF00004E1EE104A4EF63C73BA
:100BF000CEF200031C604FF0060484F31488BFF3A8
:100C00006F8F40F20004C2F2000440F20045C2F2CD
:100C1000000504E04FF05533236004F10404AC42B6
:100C2000F8D340F20044C2F2000440F60005C2F2DC
:100C3000000504E04FF05533236004F10404AC4296
:100C4000F8D306F055F84BF23875C0F6020540F6B9
:100C50000004C2F2000405E02B68236004F10404E0
:100C600005F1040540F66843C2F200039C42F3D349
:100C700040F66844C2F2000446F65865C2F2010527
:100C800004E04FF00003236004F10404AC42F8D305
:100C9000FFF77EFF40F28814C0F6020403E02368E9
:100CA000984704F1040440F28813C0F602039C4202
:100CB000F5D307F035FE40F28814C0F6020403E0D5
:100CC0002368984704F1040440F28813C0F6020335
:100CD0009C42F5D3FFF764FFAFF30080AFF30080D1
:100CE000FEE700BFAFF30080AFF30080AFF30080FA
:100CF00072B6FEE7AFF30080AFF30080AFF3008081
:100D000008B500F005FB4FF0200383F3118800F0D5
:100D1000BFFA00F0EDF900F0DBFA4FF0000383F3C7
:100D2000118800F025FB00F053F808BDAFF30080F8
:100D300010B483B0EFF309840194019B03F16803BD
:100D400001934EF63073CEF20003019A526E5A6050
:100D50004EF63073CEF200034EF63072CEF2000241
:100D6000926802F168029A60019B83F309884FF050
:100D7000000383F3118803B010BC7047AFF3008009
:100D800008B54FF46D43CEF200034FF400329A6081
:100D90004FF46D43CEF200034FF44072C0F2FA52AA
:100DA000DA604FF007004FF0100100F009F94FF042
:100DB0000A004FF4007100F003F94FF00B004FF000
:100DC000800100F0FDF808BDAFF30080AFF30080B4
:100DD00010B483B04FF0200383F311884FF46D43B8
:100DE000CEF200035B6803F40063002B5ED0EFF3E8
:100DF00009840194019BA3F168030193019B83F390
:100E00000988019B4FF08072DA6141F23023C2F20F
:100E100000039B6993F82330002B11D041F230235B
:100E2000C2F200031B689A6841F23023C2F2000349
:100E30009B699B689A4294BF00230123DBB210E0B8
:100E400041F23023C2F200031B689A6841F230235A
:100E5000C2F200039B699B689A4234BF00230123BE
:100E6000DBB2002B08D0019A40F6C163C0F6020342
:100E70009361F1EE10FA05E0019A40F6CC63C0F6FA
:100E800002039361019B03F168024EF63073CEF2C8
:100E900000035B680093009B53664EF63073CEF2FE
:100EA0000003009A42F001025A6003E04FF0000391
:100EB00083F3118803B010BC704700BFAFF300800C
:100EC00000F0A6F900F034FE00F0C2F900DF00BF28
:100ED00003460A462DE9F04F2DED108AC2F80CD0DA
:100EE000D3F80CD0BDEC108ABDE8F08FAFF30080D2
:100EF00008B500F0ADF94FF0000383F311882846E0
:100F0000A04700F04DFF08BDAFF30080AFF30080B5
:100F100010B485B001900091019B03F003034FEAE8
:100F2000C30303934FF46143CEF20003019A4FEAE7
:100F300092004FF46142CEF2000201994FEA910112
:100F400001F1C00152F82110039A4FF0FF0404FA96
:100F500002F26FEA02021140039A009C04FA02F2C4
:100F6000114300F1C00243F822104FF46143CEF266
:100F70000003019A4FEA5212019901F01F014FF04C
:100F8000010000FA01F102F1600243F822104FF46F
:100F90006143CEF20003019A4FEA5212019901F027
:100FA0001F014FF0010000FA01F143F8221005B0D3
:100FB00010BC7047AFF30080AFF30080AFF3008048
:100FC00010B485B001900091019B03F003034FEA38
:100FD000C30303934FF46D43CEF20003019A4FEA2B
:100FE00092004FF46D42CEF2000201994FEA910156
:100FF00001F1060152F82110039A4FF0FF0404FAA0
:1010000002F26FEA02021140039A009C04FA02F213
:10101000114300F1060243F8221005B010BC7047DE
:1010200082B0019041F23023C2F200039A6949F67E
:101030003023C0F602039361FEE700BFAFF30080E8
:1010400000B583B0FFF79CFE00F04AFB00F060FAA9
:1010500001F05EFC01F0CCFC00F0EAF940F6C05073
:10106000C2F200004FF0400100F082FD024641F262
:101070003023C2F200039A6141F23023C2F200032E
:101080009B694FF0010283F8202041F23023C2F225
:1010900000039A6940F20043C2F20003D36100F0FA
:1010A0009FF84FF0000383F3118862B641F23023BA
:1010B000C2F200039A694AF67033C0F602039361E4
:1010C0004FF00003009340F66840C2F200004FF476
:1010D000AC714FF0010241F22103C0F6020300F0AF
:1010E000FFFD03B000BD00BFAFF30080AFF3008091
:1010F00000B583B000F06CF941F23023C2F2000376
:101100009B6993F82330002B0BD041F23023C2F2BD
:1011100000039B6993F8232002F1FF32D2B283F8D7
:10112000232041F23023C2F200039B695A6A02F184
:1011300001025A6241F22023C2F20003DB6803F18C
:10114000010241F22023C2F20003DA6041F22023BF
:10115000C2F200031A6841F22023C2F200039A424D
:1011600039D041F22023C2F200031B689A6802F1D1
:10117000FF329A6025E0019BDB680093019B4FF0F2
:101180000002DA60019B1A6841F22023C2F20003D8
:101190005360019B1A6841F22023C2F200031A60D7
:1011A00000F096F84FF0000383F31188019B1A6951
:1011B000009B104698474FF0200383F3118800F0FE
:1011C00067F841F22023C2F200031B680193019BE0
:1011D0009B68002BCFD003B000BD00BFAFF30080F1
:1011E00008B540F60C63C2F200031B68002B06D161
:1011F00040F61063C2F200031B68002B05D049F6CD
:101200005020C0F6020000F073F908BDAFF3008073
:1012100008B540F60C63C2F200031B68002B06D130
:1012200040F61063C2F200031B68002B05D049F69C
:101230005820C0F6020000F05BF940F61063C2F2DD
:1012400000034FF001021A6008BD00BFAFF3008039
:1012500008B540F60C63C2F200031B68002B06D1F0
:1012600040F61063C2F200031B68002B05DC49F650
:101270006020C0F6020000F03BF940F61063C2F2B5
:1012800000034FF000021A6008BD00BFAFF30080FA
:1012900008B540F60C63C2F200031B68002B06DDA4
:1012A00040F61063C2F200031B68002B05D049F61C
:1012B0006820C0F6020000F01BF940F61063C2F28D
:1012C00000034FF001021A6008BD00BFAFF30080B9
:1012D00008B540F60C63C2F200031B68002B06DD64
:1012E00040F61063C2F200031B68002B05DC49F6D0
:1012F0007020C0F6020000F0FBF840F61063C2F266
:1013000000034FF000021A6008BD00BFAFF3008079
:1013100008B54FF0200383F3118840F60C63C2F246
:1013200000031B68002B06DB40F61063C2F20003CB
:101330001B68002B05D049F67820C0F6020000F0AB
:10134000D7F840F60C63C2F200031B6803F10102F8
:1013500040F60C63C2F200031A604FF0000383F3FF
:10136000118808BDAFF30080AFF30080AFF30080B9
:1013700008B54FF0200383F3118840F60C63C2F2E6
:1013800000031B68002B06DD40F61063C2F2000369
:101390001B68002B05D049F68020C0F6020000F043
:1013A000A7F840F60C63C2F200031B6803F1FF329A
:1013B00040F60C63C2F200031A604FF0000383F39F
:1013C000118808BDAFF30080AFF30080AFF3008059
:1013D00008B540F60C63C2F200031B68002B06DB65
:1013E00040F61063C2F200031B68002B05DC49F6CF
:1013F0008820C0F6020000F07BF808BDAFF3008043
:1014000008B540F60C63C2F200031B68002B06D13E
:1014100040F61063C2F200031B68002B05DC49F69E
:101420009020C0F6020000F063F808BDAFF3008022
:1014300040F61463C2F200034FF040021A6040F617
:101440001463C2F20003014A5A6070471C0E002068
:1014500082B0019040F61463C2F200035A6841F270
:101460002023C2F20003DB68136040F61463C2F26B
:1014700000035A6841F23023C2F200039B695360B3
:1014800040F61463C2F200035B68019A926A9A60A4
:1014900040F61463C2F200035B68019A92F82020C0
:1014A0001A7340F61463C2F200035B6803F1100282
:1014B00040F61463C2F200035A6040F61463C2F2AD
:1014C00000035A68054B9A4205D340F61463C2F2F2
:1014D0000003034A5A6002B0704700BF1C1200208C
:1014E0001C0E0020AFF30080AFF30080AFF300804C
:1014F00000B583B0019041F21C23C2F20003019AAF
:101500001A60FFF7F5FB03B000BD00BFAFF300802A
:1015100041F22023C2F2000341F22022C2F2000273
:101520005A6041F22023C2F200035A6841F220239C
:10153000C2F200031A6041F22023C2F200034FF00E
:10154000FF329A6041F22023C2F200034FF0000202
:10155000DA607047AFF30080AFF30080AFF3008034
:1015600000B587B00390029101920093FFF730FF1E
:10157000039B002B05D0019B002B02D0029B002B6C
:1015800005D149F6A020C0F60200FFF7B1FF039B8A
:10159000009A1A61039B019ADA6041F22023C2F299
:1015A00000031B68059307E0059B9B68029AD31A0A
:1015B0000293059B1B680593059B9A68029B9A42C0
:1015C000F2D3039B059A1A60039B1B685A68039B1E
:1015D0005A60039B5B68059A03995160059A5268AB
:1015E0001A60039B029A9A60059A41F22023C2F284
:1015F00000039A4205D0059B9A68029BD21A059B6C
:101600009A6007B000BD00BFAFF30080AFF3008069
:1016100000B583B00190FFF7DBFE019B002B05D1E5
:1016200049F6B020C0F60200FFF762FF019BDB68BD
:10163000002B05D149F6C020C0F60200FFF758FF85
:10164000019B1A6841F22023C2F200039A4208D09B
:10165000019B1B68019A12689168019A92688A1826
:101660009A60019B5B68019A12681A60019B1B6873
:10167000019A52685A60019B4FF00002DA6003B091
:1016800000BD00BFAFF30080AFF30080AFF3008078
:1016900084B00190019B1B680393039B1A68019B14
:1016A0001A60019B1B68019A5A60039B184604B09C
:1016B000704700BFAFF30080AFF30080AFF300804E
:1016C00082B00190019B5B68019A12681A60019BCD
:1016D0001B68019A52685A60019B184602B0704715
:1016E00041F23023C2F2000341F23022C2F2000282
:1016F0005A6041F23023C2F200035A6841F23023AB
:10170000C2F200031A6041F23023C2F200034FF02C
:1017100000029A6041F23023C2F2000341F230220B
:10172000C2F200025A6141F23023C2F200035A6948
:1017300041F23023C2F200031A617047AFF3008018
:1017400000B585B00190FFF743FE019B93F8203070
:10175000002B04D0019B93F820300E2B05D149F6C5
:10176000E020C0F60200FFF7C3FE019B4FF000022D
:1017700083F8202041F23023C2F200030393039B3D
:101780001B680393039B9A68019B9B689A42F6D25D
:10179000019B039A1A60039B5A68019B5A60019B44
:1017A0005B68039A01995160039A52681A60019B21
:1017B000184605B000BD00BFAFF30080AFF3008056
:1017C00000B585B003468DF80730FFF719FE41F2EA
:1017D0003023C2F200039B690393039B9DF807200B
:1017E00083F82020039B4FF0140283F8232041F25A
:1017F0003020C2F20000FFF74BFF024641F23023D7
:10180000C2F200039A6141F23023C2F200039B69E5
:101810004FF0010283F820200398FFF719FE6B4672
:10182000A3F16402039BDB699A4205D249F6F420D6
:10183000C0F60200FFF75CFE41F23023C2F2000363
:101840009B6918460399FFF743FB05B000BD00BF35
:1018500000B585B00190019B03934FF0200383F303
:101860001188FFF715FD039B93F820300D2B2FD81F
:1018700001A252F823F000BFB1180208D1180208E3
:10188000D1180208BF180208D1180208CB180208A4
:10189000D1180208D1180208D1180208D11802087C
:1018A000D1180208D1180208D1180208CB18020872
:1018B000FFF70EFD4FF0000383F3118815E0039B43
:1018C0009B6A9A6802F101029A600398FFF7F8FE9A
:1018D000039B4FF0FF329A620398FFF731FFFFF747
:1018E000F7FC4FF0000383F3118805B000BD00BF83
:1018F00000B589B0034600918DF80730FFF780FDF1
:10190000009BB3F1FF3F1AD041F23023C2F2000333
:101910009B6903AA1046009941F65102C0F60202E3
:10192000FFF71EFE9DF807301846FFF749FF069B9C
:10193000002B09D003AB1846FFF76AFE04E09DF8C0
:1019400007301846FFF73CFF41F23023C2F2000394
:101950009B699B6A184609B000BD00BFAFF30080C9
:1019600000B585B001900091FFF74AFD019B009AF8
:101970009A62019B9A6841F23023C2F200039B698C
:101980009B689A4203D80198FFF7DAFE27E041F2FC
:101990003023C2F200039B691846FFF7D1FE039083
:1019A00041F23023C2F20003019A9A61019B4FF089
:1019B000010283F820200398FFF74AFD6B46A3F14C
:1019C0006402039BDB699A4205D249F6F420C0F613
:1019D0000200FFF78DFD01980399FFF779FA05B032
:1019E00000BD00BFAFF30080AFF30080AFF3008015
:1019F00000B583B041F23023C2F200039B6901932A
:101A000041F23020C2F20000FFF742FE024641F2EE
:101A10003023C2F200039A6141F23023C2F2000384
:101A20009B694FF0010283F82020019B4FF01402C4
:101A300083F823200198FFF783FE0198FFF708FD44
:101A40006B46A3F16402019BDB699A4205D249F619
:101A5000F420C0F60200FFF74BFD41F23023C2F242
:101A600000039B6918460199FFF732FA03B000BDE5
:101A700000B583B041F23023C2F200039B690093AA
:101A800041F23020C2F20000FFF702FE024641F2AE
:101A90003023C2F200039A6141F23023C2F2000304
:101AA0009B694FF0010283F82020009B4FF0000259
:101AB00083F8202041F23023C2F200030193019BFE
:101AC0001B680193019B9A68009B9B689A42F6D819
:101AD000009B019A1A60019B5A68009B5A60009B08
:101AE0005B68019A00995160019A52681A600098E7
:101AF000FFF7AEFC6B46A3F16402009BDB699A42E0
:101B000005D249F6F420C0F60200FFF7F1FC41F2DD
:101B10003023C2F200039B6918460099FFF7D8F9F9
:101B200003B000BDAFF30080AFF30080AFF30080DF
:101B300008B541F23023C2F200039B6993F82330C9
:101B4000002B02D1FFF754FF01E0FFF791FF08BD22
:101B500084B00190019B1B680393039B1A68019B4F
:101B60001A60039B184604B0704700BFAFF30080B3
:101B700082B001900091019B009A9A60019B4FF006
:101B8000020283F82020019B4FF0000283F82120FD
:101B9000019B4FF0140283F82320019B009A5A64A2
:101BA000019B4FF000021A64019B4FF00002DA63C0
:101BB000019B4FF000025A62019B4FF0010283F833
:101BC0002220019B4FF000029A61019A41F23023DA
:101BD000C2F20003136141F23023C2F200035A69DA
:101BE000019B5A61019B5A6941F23023C2F2000302
:101BF0000199596141F23023C2F200035B6913611C
:101C0000019B03F12C02019BDA62019B03F130027C
:101C1000019B5A63019B5A6B019B1A63019B03F161
:101C20004C02019BDA61019B184602B0704700BF6D
:101C300084B00390029113468DF8073007E0039BB0
:101C40009DF807201A70039B03F101030393039A85
:101C5000029B9A42F3D304B0704700BFAFF30080F9
:101C600000B587B00390029101920093039B059306
:101C7000FFF7AEFB039B002B0AD0029A40F237130A
:101C80009A4205D9019B7F2B02D8009B002B05D1DE
:101C900049F61030C0F60200FFF72AFC029BA3F1C0
:101CA0006403039AD218059BDA60059BDB68009AEF
:101CB0001A64059BDB68089A5A64059BDA6840F64B
:101CC000F163C0F60203136605980199FFF750FF10
:101CD0000346184607B000BDAFF30080AFF30080A5
:101CE00000B589B00590049103920293059B03F11E
:101CF0004C03059819464FF0FF02FFF799FF059B2B
:101D000003F14C020599049BCB18104619464FF07D
:101D10005502FFF78DFF4FF0200383F31188FFF783
:101D200077FA0A9B009305980499039A029BFFF7A0
:101D300097FF079007984FF00001FFF711FEFFF79C
:101D400087FA4FF0000383F31188079B184609B008
:101D500000BD00BFAFF30080AFF30080AFF30080A1
:101D600000B583B00190019B002B05D149F650309E
:101D7000C0F60200FFF7BCFB4FF0200383F311888D
:101D8000FFF746FA4FF006000199FFF7B1FDFFF7A4
:101D90005FFA4FF0000383F3118803B000BD00BF6A
:101DA00000B583B001904FF0200383F31188FFF753
:101DB0002FFA019800F004F803B000BDAFF30080E3
:101DC00000B585B0019041F23023C2F200039B6957
:101DD0000393039B019A9A6209E0039B03F12C038E
:101DE0001846FFF7B5FE03461846FFF7A9FC039B0C
:101DF000DA6A039B03F12C039A42EED1039B93F81A
:101E0000213003F00303002B09D1039B5B69039A84
:101E100012691A61039B1B69039A52695A614FF058
:101E20000E00FFF7CDFC49F66030C0F60200FFF768
:101E30005FFB05B000BD00BFAFF30080AFF30080D3
:101E400000B585B001904FF0200383F31188FFF7B0
:101E5000DFF9019B93F82230002B05D149F6C430FD
:101E6000C0F60200FFF744FB019B93F8223003F118
:101E7000FF33DAB2019B83F82220019B93F82230D2
:101E80008DF80F30FFF7E4F94FF0000383F311886A
:101E90009DF80F30002B2DD1019B93F820300E2B95
:101EA00028D1019B93F8213003F00303012B02D0CA
:101EB000022B0ED01EE0019B5B69019A12691A6128
:101EC000019B1B69019A52695A61019800F030FE2A
:101ED00010E0019B5B69019A12691A61019B1B6901
:101EE000019A52695A61019B9B6C1846019900F056
:101EF000C7FE00BF05B000BDAFF30080AFF30080A8
:101F000000B589B005900491039202930598049955
:101F100000F08EFD0790079B002B02D14FF00003CD
:101F200034E0079B03F14C03079819464FF0FF027A
:101F3000FFF77EFE079B03F14C020799049BCB1829
:101F4000104619464FF05502FFF772FE4FF020037E
:101F500083F31188FFF75CF90A9B009307980499B3
:101F6000039A029BFFF77CFE0690069B4FF001024E
:101F700083F8212006984FF00001FFF7F1FCFFF7EE
:101F800067F94FF0000383F31188069B184609B0E8
:101F900000BD00BFAFF30080AFF30080AFF300805F
:101FA00084B001900091009B0393039B1B680393F3
:101FB000039A009B9A4205D0039B9A68019B9B68F9
:101FC0009A42F2D2019B039A1A60039B5A68019BC2
:101FD0005A60019B5B68039A01995160039A5268A9
:101FE0001A6004B0704700BFAFF30080AFF3008009
:101FF00084B00190019B1B680393039B1A68019BAB
:102000001A60019B1B68019A5A60039B184604B032
:10201000704700BFAFF30080AFF30080AFF30080E4
:1020200082B00190019B5B68019A12681A60019B63
:102030001B68019A52685A60019B184602B07047AB
:1020400000B583B00190019B002B05D149F60040FB
:10205000C0F60200FFF74CFA019A019B5A60019BFF
:102060005A68019B1A60019B4FF000029A6003B00E
:1020700000BD00BFAFF30080AFF30080AFF300807E
:1020800000B583B001904FF0200383F31188FFF770
:10209000BFF8019800F00CF8FFF7DAF84FF00003F2
:1020A00083F3118803B000BDAFF30080AFF300806D
:1020B00000B585B0019041F23023C2F200039B6964
:1020C0000293FFF79DF9019B002B05D149F61040C3
:1020D000C0F60200FFF70CFA019B9B68002B62D050
:1020E000019B9B68039335E0029B9A68039B9A606F
:1020F000039B93F82030042B04D0052B11D0002B28
:102100001AD026E00398FFF78BFF0246039B9B6AD9
:1021100010461946FFF744FF039B9B6A9B68039395
:1021200018E00398FFF77CFF0246039B9B6A10466A
:102130001946FFF735FF0CE0039B4FF0010283F8CF
:1021400020200398FFF76CFF03461846FFF7F8FAC4
:1021500000BF05E0039B9A68029B9B689A42C3D329
:10216000019B02981946FFF71BFF029B019A9A6296
:102170004FF00400FFF724FB019B9A68029B9A42F0
:1021800005D049F62040C0F60200FFF7B1F9029BE6
:102190001A6C019B9A4210D049F63440C0F60200F6
:1021A000FFF7A6F909E0019B029A9A60029B1A6C5C
:1021B000019BDA60029B019A1A6405B000BD00BF62
:1021C00000B587B041F23023C2F200039B6903934C
:1021D0004FF0200383F31188FFF71AF8039B1B6C61
:1021E000002B05D149F65C40C0F60200FFF780F9EC
:1021F000039B1B6C9A68039B9A4205D049F670407A
:10220000C0F60200FFF774F9039B1B6C0293029B5C
:10221000DA68039B1A64029B1A68029B9A4233D0C5
:10222000039B5B6C0493039B1B6C059311E0059B64
:102230001A68059B9A4209D0059B1B689A68049B03
:102240009A4203D9059B1B689B680493059BDB6836
:102250000593059B002BEAD1039B049A9A60029B8D
:102260001846FFF7C5FE0190029B019A9A60019BF8
:102270001A6C029BDA60019B029A1A6401984FF073
:102280000001FFF76DFB03E0029B4FF000029A6034
:10229000FEF7DEFF4FF0000383F31188029B184620
:1022A00007B000BDAFF30080AFF30080AFF3008054
:1022B00000B585B001900091FFF78AF8019B002BD3
:1022C00005D149F6DC40C0F60200FFF711F9019B89
:1022D0001B68039310E0039BDA68009B1A43039B7F
:1022E000DA60039B5A68039B9B681046194600F00E
:1022F0000FF8039B1B680393039A019B9A42EAD150
:1023000005B000BDAFF30080AFF30080AFF30080F5
:1023100000B583B001900091FFF75AF8019B002BA4
:1023200005D149F60450C0F60200FFF7E1F8019B21
:10233000DA6B009B1A43019BDA63019B93F8203010
:10234000082B06D1019BDA6B019B9B6A1340002B83
:102350000DD1019B93F82030092B0FD1019BDA6B33
:10236000019B9B6A1A40019B9B6A9A4206D1019885
:10237000FFF7E6F903464FF000029A6203B000BD92
:1023800082B001900091019B009A1A60009B5A68EC
:10239000019B5A60019B5B68009A01995160009A09
:1023A00052681A6002B07047AFF30080AFF300804C
:1023B00084B00190019B1B680393039B1A68019BE7
:1023C0001A60019B1B68019A5A60039B184604B06F
:1023D000704700BFAFF30080AFF30080AFF3008021
:1023E00000B583B001900091009B002B02D14FF00B
:1023F000FF3316E041F23023C2F200039B69019AD9
:102400009A6241F23023C2F200039A69019B10469E
:102410001946FFF7B5FF4FF00D000099FFF768FA76
:102420000346184603B000BDAFF30080AFF3008051
:1024300084B00390029101920093039A039B5A6027
:10244000039B5A68039B1A60039B4FF000029A603B
:10245000039B029A5A61039B5A69039B9A61039BEF
:102460009A69039BDA60029A019BD218039B1A6156
:10247000039B009ADA61039B049A1A6204B07047C6
:1024800000B583B001900B468DF80330FEF7A0FF36
:10249000019B5A69019B9B699A4206D1019B9B68EB
:1024A000002B02D04FF0010301E04FF0000303F0D6
:1024B0000103DBB2002B02D06FF003032BE0019B82
:1024C0009B6803F10102019B9A60019B5B699DF887
:1024D00003201A7003F10102019B5A61019B5A69A2
:1024E000019B1B699A4203D3019BDA68019B5A61E5
:1024F000019B1A68019B9A420BD0019B1846FFF77B
:1025000057FF03461846FFF71BF903464FF000023A
:102510009A624FF00003184603B000BDAFF300808D
:1025200000B585B0019000914FF0200383F311882E
:10253000FEF76EFE019BDB69002B14D0019BDB696B
:10254000019898470FE001980099FFF749FF039021
:10255000039B002B08DAFEF77BFE4FF0000383F3AA
:102560001188039B25E000BF019B9B68002BEAD0EC
:10257000019B9B6803F1FF32019B9A60019B9B6961
:102580001A788DF80B2003F10102019B9A61019BDF
:102590009A69019B1B699A4203D3019BDA68019BEC
:1025A0009A61FEF755FE4FF0000383F311889DF802
:1025B0000B30184605B000BDAFF30080AFF30080CC
:1025C00000B587B00390029101920093039BDB69F1
:1025D00004934FF000030593019B002B05D149F6AE
:1025E0004050C0F60200FEF783FF4FF0200383F354
:1025F0001188FEF70DFE049B002B12D0049B03985C
:1026000098470EE003980099FFF7EAFE0346002B77
:1026100008D0FEF71DFE4FF0000383F31188059BE1
:102620003BE000BF039B9B68002BEBD0039B9B68A8
:1026300003F1FF32039B9A60039B9B691978029A0E
:102640001170029A02F10102029203F10102039B4E
:102650009A61039B9A69039B1B699A4203D3039B6C
:10266000DA68039B9A61FEF7F3FD4FF0000383F3F2
:102670001188059B03F101030593019B03F1FF33CF
:102680000193019B002B01D1059B06E04FF0200335
:1026900083F31188FEF7BCFDADE7184607B000BD17
:1026A00084B00390029101920093039A039B5A60B5
:1026B000039B5A68039B1A60039B019A9A60039BD1
:1026C000029A5A61039B5A69039B9A61039B9A6918
:1026D000039BDA60029A019BD218039B1A61039B49
:1026E000009ADA61039B049A1A6204B0704700BF33
:1026F00000B587B003900B4601928DF80B304FF078
:10270000200383F31188FEF783FD0FE003980199FE
:10271000FFF766FE0590059B002B07DAFEF798FD94
:102720004FF0000383F31188059B2CE0039B9B680B
:10273000002BEBD0039B9B6803F1FF32039B9A6055
:10274000039B5B699DF80B201A7003F10102039B48
:102750005A61039B5A69039B1B699A4203D3039BEB
:10276000DA68039B5A61039BDB69002B03D0039B50
:10277000DB6903989847FEF76BFD4FF0000383F386
:1027800011884FF00003184607B000BDAFF300807A
:1027900000B585B00190FEF71BFE019B5A69019BB5
:1027A0009B699A4206D1019B9B68002B02D04FF097
:1027B000010301E04FF0000303F00103DBB2002B43
:1027C00002D06FF002032BE0019B9B6803F1010232
:1027D000019B9A60019B9B691A788DF80F2003F189
:1027E0000102019B9A61019B9A69019B1B699A42B4
:1027F00003D3019BDA68019B9A61019B1A68019BD4
:102800009A420BD0019B1846FFF7D2FD03461846AB
:10281000FEF796FF03464FF000029A629DF80F30D4
:10282000184605B000BD00BFAFF30080AFF30080D5
:1028300000B587B00390029101920093039BDB697E
:1028400004934FF000030593019B002B05D149F63B
:102850005450C0F60200FEF74BFE4FF0200383F306
:102860001188FEF7D5FC0EE003980099FFF7B8FD3C
:102870000346002B07D0FEF7EBFC4FF0000383F379
:102880001188059B41E0039B9B68002BECD0039BC8
:102890009B6803F1FF32039B9A60039B5B69029A7A
:1028A00012781A7003F10102039B5A61029B03F133
:1028B00001030293039B5A69039B1B699A4203D34A
:1028C000039BDA68039B5A61049B002B02D0049B94
:1028D00003989847FEF7BCFC4FF0000383F3118880
:1028E000059B03F101030593019B03F1FF33019362
:1028F000019B002B01D1059B07E04FF0200383F3E0
:102900001188FEF785FC00BFBDE7184607B000BD83
:1029100046F65863C2F2010303F1070323F00703ED
:102920001A4641F24C23C2F200031A604CF2000333
:10293000C2F2010323F007031A4641F25023C2F208
:1029400000031A60704700BFAFF30080AFF3008050
:1029500000B585B001904FF0200383F31188FEF796
:1029600057FC019800F00CF80390FEF771FC4FF053
:10297000000383F31188039B184605B000BD00BF18
:1029800000B585B00190FEF723FD019B03F107031D
:1029900023F00703019341F25023C2F200031B68A6
:1029A0001A4641F24C23C2F200031B68D31A1A469E
:1029B000019B9A4202D24FF0000312E041F24C23F5
:1029C000C2F200031B68039341F24C23C2F20003DE
:1029D0001A68019BD21841F24C23C2F200031A601C
:1029E000039B184605B000BDAFF30080AFF3008035
:1029F00008B541F25823C2F2000342F65112C0F664
:102A000002021A6041F25823C2F200034FF00002A2
:102A10009A6041F25823C2F200034FF00002DA60DC
:102A20000148FFF70DFB08BD68120020AFF30080DE
:102A300000B587B001900091019B002B04D141F2B9
:102A40005823C2F200030193009B03F1070323F014
:102A500007030093019B03F108030593019B03F116
:102A600010031846FFF70CFB36E0059B1B68049328
:102A7000049B5A68009B9A422CD3049B5A68009B83
:102A800003F108039A4204D2049B1A68059B1A605A
:102A900017E0009B03F10803049AD3180393049BE7
:102AA0001A68039B1A60049B5A68009BD31AA3F10F
:102AB0000802039B5A60059B039A1A60049B009AC4
:102AC0005A60049B019A1A60FFF77AFB049B03F19A
:102AD000080324E0049B0593059B1B68002BC4D1CD
:102AE000FFF76EFB019B1B68002B16D0019B1B6838
:102AF000009A02F10802104698470490049B002BAC
:102B00000BD0049B019A1A60049B009A5A60049BA4
:102B100003F108030493049B01E04FF000031846FF
:102B200007B000BDAFF30080AFF30080AFF30080CB
:102B300000B587B00190019B002B05D149F680506C
:102B4000C0F60200FEF7D4FC019BA3F10803049336
:102B5000049B1B680393039B03F108030593039BEA
:102B600003F110031846FFF78BFA049A059B9A426B
:102B70000ED3059B5B6803F10803059AD218049BEA
:102B80009A4205D949F69050C0F60200FEF7B0FC13
:102B9000039B03F10802059B9A4203D0049A059B0C
:102BA0009A423FD9059B1B68002B04D0059B1A68ED
:102BB000049B9A4236D9059B1A68049B1A60059BB0
:102BC000049A1A60049B5B6803F10803049AD21804
:102BD000049B1B689A420ED1049B5A68049B1B6895
:102BE0005B68D31803F10802049B5A60049B1B68BE
:102BF0001A68049B1A60059B5B6803F10803059A39
:102C0000D218049B9A4211D1059B5A68049B5B68B9
:102C1000D31803F10802059B5A60049B1A68059BB0
:102C20001A6003E0059B1B6805939EE700BFFFF752
:102C3000C7FA00BF07B000BDAFF30080AFF300805C
:102C400000B585B001900091009B0393FEF7C0FB97
:102C5000019B002B02D0009B002B05D149F6E850C8
:102C6000C0F60200FEF744FC019B1A68039B1A6041
:102C7000019B039A1A6005B000BD00BFAFF300804E
:102C800000B583B0019000914FF0200383F31188C9
:102C9000FEF7BEFA01980099FFF7D2FFFEF7D8FAC7
:102CA0004FF0000383F3118803B000BDAFF3008041
:102CB00008B501F045FB4AF6A040C0F6020003F05B
:102CC00077F800F015F800F043F800F091F800F004
:102CD0001FF900F07DFD00F013FA00F029FE00F06E
:102CE000CFF904F03DF808BDAFF30080AFF30080EA
:102CF00008B501F005FE08BDAFF30080AFF300801A
:102D000000B583B00190019B4FF001021A70019B46
:102D10004FF000025A60019B4FF000029A60019B45
:102D20004FF00002DA60019B4FF000021A61019B34
:102D30004FF000025A61019B03F118031846FFF798
:102D40007FF903B000BD00BFAFF30080AFF3008098
:102D500008B502F025F908BDAFF30080AFF300809D
:102D600082B00190019B4FF001021A70019B4FF05D
:102D700000025A6002B07047AFF30080AFF30080EA
:102D800000B583B001900091019B002B02D0009B05
:102D9000002B05D149F60060C0F60200FEF7A8FB43
:102DA0004FF0200383F31188FEF732FA019B1B7862
:102DB000012B09D0019B1B78022B05D049F610602E
:102DC000C0F60200FEF794FB019B009A5A6001983E
:102DD00002F0EEF8019B4FF002021A70FEF738FA8B
:102DE0004FF0000383F3118803B000BDAFF3008000
:102DF00008B503F035FB08BDAFF30080AFF30080EA
:102E000082B00190019B4FF001021A70019B4FF0BC
:102E100000025A6002B07047AFF30080AFF3008049
:102E200000B583B001900091019B002B02D0009B64
:102E3000002B05D149F6D060C0F60200FEF758FB22
:102E40004FF0200383F31188FEF7E2F9019B1B7812
:102E5000012B09D0019B1B78022B05D049F6DC60C1
:102E6000C0F60200FEF744FB019B009A5A600198ED
:102E700003F016FB019B4FF002021A70FEF7E8F90F
:102E80004FF0000383F3118803B000BDAFF300805F
:102E900000B583B0019000914FF0200383F31188B7
:102EA000FEF7B6F90198009900F00AF8FEF7D0F99C
:102EB0004FF0000383F3118803B000BDAFF300802F
:102EC00000B583B001900091FEF782FA019B002BC0
:102ED00005D149F63870C0F60200FEF709FB019BE8
:102EE0001B78022B05D049F65070C0F60200FEF7A1
:102EF000FFFA019B4FF003021A700198009903F04A
:102F000077FB03B000BD00BFAFF30080AFF30080DC
:102F100008B503F04DFC08BDAFF30080AFF30080AF
:102F200082B00190019B4FF001021A70019B4FF09B
:102F300000025A6002B07047AFF30080AFF3008028
:102F400000B589B0039002910192029A019B9A42C6
:102F500004D3029A019BD31A1F2B05D949F6E070BE
:102F6000C0F60200FEF7C4FA019B4FEA5313079321
:102F7000019B03F01F030693029B4FEA5313059333
:102F8000029B03F01F0303F101034FF0010202FA59
:102F900003F303F1FF330493079A059B9A4217D278
:102FA000079B4FEA8303039AD3181A68069B22FAF9
:102FB00003F2059B4FEA83030399CB181968049B1E
:102FC0001940069BC3F1200301FA03F313430AE0FF
:102FD000079B4FEA8303039AD3181A68049B1A408D
:102FE000069B22FA03F3184609B000BDAFF3008038
:102FF00000B587B00190019B03F10C031B684FEAF9
:103000009373002B02D0012B26D032E001984FF0B1
:1030100049014FF03E02FFF793FF059001984FF0F2
:1030200031014FF02F02FFF78BFF049001984FF012
:1030300053014FF05002FFF783FF0390059B03F10C
:103040000102049B03F1020302FA03F2039BA3F1C2
:10305000090302FA03F30EE001984FF045014FF027
:103060003002FFF76DFF034603F101034FEA8323AC
:1030700001E04FF00003184607B000BDAFF3008039
:1030800008B502F015FF08BDAFF30080AFF3008074
:1030900000B585B00190019B9A6B03AB01984FF08E
:1030A0000D0102F0F5FB0346002B07D1039A4EF207
:1030B0000803CFF6FF531340002B02D04FF001035B
:1030C00015E0039B4FEA532303F00F03042B04D0B6
:1030D000042B0AD3072B08D802E04FF0000306E0C8
:1030E0004FF00100FEF73CFED5E74FF00103184614
:1030F00005B000BDAFF30080AFF30080AFF30080F8
:1031000008B502F0B5FA08BDAFF30080AFF3008058
:1031100082B00190019A4AF69033C0F60203136020
:10312000019B4FF001021A71019B4FF000025A639C
:10313000019B4FF00002DA62019B4FF000029A629D
:1031400002B07047AFF30080AFF30080AFF30080B0
:1031500000B587B00190019B002B05D14AF23C00DD
:10316000C0F60200FEF7C4F9019B1B79022B09D0BF
:10317000019B1B79052B05D04AF24C00C0F60200DA
:10318000FEF7B6F9019B4FF003021A71019802F0A5
:103190008FFA01984FF000014FF0000202F008FB97
:1031A00003AB01984FF008014FF4D57202F070FBA9
:1031B000034683F00103DBB2002B21D0019B4FF0CB
:1031C00001021A63039B4FEA132303F00F03012B41
:1031D00040F0FA8003AB01984FF037014FF0000246
:1031E00002F056FB0346002B40F0FD80039A4EF29E
:1031F0000803CFF6FF531340002B40F0F48003E0A8
:10320000019B4FF000021A63019B1B6B03F00F033D
:10321000012B05D14FF00003CCF21003049304E01E
:103220004FF00003C8F2100304934FF0000305931E
:1032300003AB01984FF037014FF0000202F028FB7A
:103240000346002B40F0CF80039A4EF20803CFF6DE
:10325000FF531340002B40F0C68003AB01984FF0A2
:103260002901049A02F0CCFA0346002B40F0AE800C
:10327000039B002B0BDA039B03F08043002B13D03E
:10328000019B1B6B43F01002019B1A630CE0059B32
:1032900003F101030593059B632B00F299804FF026
:1032A0000A00FEF75DFDC3E700BF019B03F10803C1
:1032B00001984FF002014FF0000202F031FB03468B
:1032C000002B40F08780019B03F1380301984FF0F9
:1032D00003014FF0000202F0DBFA0346002B7BD122
:1032E000019B9A6B019B03F1180301984FF00901B0
:1032F00002F016FB0346002B70D1019802F000FA91
:10330000019B9A6B03AB01984FF0070102F0C0FAE2
:103310000346002B64D103AB01984FF010014FF42A
:10332000007202F0B5FA0346002B5CD1039A4EF20C
:103330000803CFF6FF531340002B54D1019B1B6BA6
:1033400003F00F03012B2BD801984FF0010102F07D
:10335000FFF9019B9A6B03AB01984FF0370102F024
:1033600097FA0346002B3ED1039A4EF20803CFF69C
:10337000FF531340002B36D103AB01984FF00601E9
:103380004FF0020202F084FA0346002B2BD1039A7D
:103390004EF20803CFF6FF531340002B23D100BF9A
:1033A000019B03F118031846FFF722FE0246019B1A
:1033B0009A62019B9B6A002B14D0019B4FF005027F
:1033C0001A714FF0000317E000BF0CE000BF0AE0E5
:1033D00000BF08E000BF06E000BF04E000BF02E05D
:1033E00000BF00E000BF019802F09AF9019B4FF086
:1033F00002021A714FF00103184607B000BD00BF6A
:1034000000B583B00190019B002B05D14AF260000A
:10341000C0F60200FEF76CF84FF0200383F311882A
:10342000FDF7F6FE019B1B79022B09D0019B1B794E
:10343000052B05D04AF27400C0F60200FEF758F8DA
:10344000019B1B79022B08D1FDF702FF4FF000030F
:1034500083F311884FF0000322E0019B4FF0040238
:103460001A71FDF7F5FE4FF0000383F31188019800
:10347000FFF70EFE0346002B09D0019802F050F929
:10348000019B4FF002021A714FF0010308E001980E
:1034900002F046F9019B4FF002021A714FF000034F
:1034A000184603B000BD00BFAFF30080AFF300804B
:1034B00000B587B00390029101920093039B002B0B
:1034C00005D0019B002B02D0009B002B05D14AF2B6
:1034D0008800C0F60200FEF70BF8039B1B79052B52
:1034E00005D04AF29400C0F60200FEF701F8029AF5
:1034F000009BD31803F1FF32039B9B6A9A4208D9C1
:10350000039B5B6B43F08002039B5A634FF0010304
:1035100012E0039B4FF006021A7103980299019A78
:10352000009B02F075FB03468DF81730039B4FF0AC
:1035300005021A719DF81730184607B000BD00BF8C
:1035400000B587B00390029101920093039B002B7A
:1035500005D0019B002B02D0009B002B05D14AF225
:10356000A400C0F60200FDF7C3FF039B1B79052BE7
:1035700005D04AF2B400C0F60200FDF7B9FF029A86
:10358000009BD31803F1FF32039B9B6A9A4208D930
:10359000039B5B6B43F08002039B5A634FF0010374
:1035A00012E0039B4FF007021A7103980299019AE7
:1035B000009B02F07DFB03468DF81730039B4FF014
:1035C00005021A719DF81730184607B000BD00BFFC
:1035D00000B585B00190019B002B05D14AF2FC009B
:1035E000C0F60200FDF784FF019B1B79052B02D07A
:1035F0004FF001030FE0019B4FF008021A71019890
:1036000002F0A6FB03468DF80F30019B4FF0050238
:103610001A719DF80F30184605B000BDAFF3008059
:1036200000B583B001900091019B002B02D0009B5C
:10363000002B05D14AF20810C0F60200FDF758FF32
:10364000019B1B79052B02D04FF0010309E0019B80
:103650009A6A009B5A60009B4FF400721A604FF008
:103660000003184603B000BDAFF30080AFF3008045
:1036700000B585B0039002910192039B03F13003E2
:1036800018460299019A4FF0FF33FFF7D1F803462D
:10369000184605B000BD00BFAFF30080AFF3008057
:1036A00000B585B0039002910192039B03F10C03D6
:1036B00018460299019A4FF0FF33FEF781FF034647
:1036C000184605B000BD00BFAFF30080AFF3008027
:1036D00000B583B001900B468DF80330019B03F1D8
:1036E00030029DF80330104619464FF0FF32FEF7C6
:1036F000FFFF0346184603B000BD00BFAFF30080D4
:1037000000B583B00190019B03F10C0318464FF004
:10371000FF31FEF705FF0346184603B000BD00BFAA
:1037200000B585B003900B4601928DF80B30039BDA
:1037300003F130029DF80B3010461946019AFEF74E
:10374000D7FF0346184605B000BD00BFAFF30080A9
:1037500000B583B001900091019B03F10C03184662
:103760000099FEF7DDFE0346184603B000BD00BF1A
:1037700000B585B00390029101920093039B03F181
:10378000300318460299019A009BFFF751F803464F
:10379000184605B000BD00BFAFF30080AFF3008056
:1037A00000B585B00390029101920093039B03F151
:1037B0000C0318460299019A009BFEF701FF03468D
:1037C000184605B000BD00BFAFF30080AFF3008026
:1037D00008B503F0DDF908BDAFF30080AFF300805A
:1037E00000B587B0059004910392059A4AF6B0336C
:1037F000C0F602031360059B03F10402059B5A60A7
:10380000059B4FF001021A72059B03F10C02059B08
:1038100003F1540305990091104619464FF04002F8
:10382000049BFEF705FE059B03F13002059B03F1A7
:10383000940305990091104619464FF04002039BEE
:10384000FEF72EFF07B000BDAFF30080AFF300809E
:1038500000B583B001900091019B002B05D14AF285
:103860004010C0F60200FDF743FE4FF0200383F343
:103870001188FDF7CDFC019B1B7A012B09D0019B20
:103880001B7A022B05D04AF24C10C0F60200FDF75D
:103890002FFE0198009903F0C3F9019B4FF002023B
:1038A0001A72FDF7D5FC4FF0000383F3118803B0C3
:1038B00000BD00BFAFF30080AFF30080AFF3008026
:1038C00000B583B001900B468DF80330FDF780FD05
:1038D000019B002B05D14AF27810C0F60200FDF7DB
:1038E00007FE019B5B69002B07D1019B03F10403D9
:1038F00018464FF00401FEF7DBFC019B03F10C02BC
:103900009DF8033010461946FEF7BAFD0346002B1A
:1039100007DA019B03F1040318464FF08001FEF71C
:10392000C7FC03B000BD00BFAFF30080AFF3008061
:1039300008B502F0BDFB08BDAFF30080AFF3008017
:1039400000B583B00190019B4FF001021A70019BFA
:103950004FF000025A60019B4FF000029A60019BF9
:1039600003F10C031846FEF76BFB03B000BD00BF6C
:1039700000B583B001900091019B002B02D0009B09
:10398000002B05D14AF2A010C0F60200FDF7B0FDF1
:103990004FF0200383F31188FDF73AFC019B1B785D
:1039A000012B09D0019B1B78022B05D04AF2B010E5
:1039B000C0F60200FDF79CFD019B009A5A60019839
:1039C00002F0E6FB019B4FF002021A70FDF740FC8B
:1039D0004FF0000383F3118803B000BDAFF3008004
:1039E00000B583B00190019B002B05D14AF2DC1099
:1039F000C0F60200FDF77CFD4FF0200383F3118831
:103A0000FDF706FC019B1B78022B05D04AF2EC1057
:103A1000C0F60200FDF76CFD019802F0A1FCFDF775
:103A200017FC4FF0000383F3118803B000BD00BF03
:103A300000B583B00190019B002B05D14AF2FC1028
:103A4000C0F60200FDF754FD4FF0200383F3118808
:103A5000FDF7DEFB019B1B78022B05D04AF20C2000
:103A6000C0F60200FDF744FD019802F089FCFDF765
:103A7000EFFB4FF0000383F3118803B000BD00BFDC
:103A800000B583B0FDF744FC4FF4C043C4F2020319
:103A90001B6803F03D0301934FF4C043C4F20203DB
:103AA0004FF03D029A6041F27C23C2F200031B6892
:103AB000002B0CD041F27C23C2F200031A6841F2C1
:103AC0007C23C2F200035B68184601999047FDF71A
:103AD0004FFCFDF77DF903B000BD00BFAFF30080E0
:103AE00000B583B0FDF714FC4FF4C043C4F20203E9
:103AF0001B684FEA931303F03D0301934FF4C04357
:103B0000C4F202034FF474629A6041F27C23C2F261
:103B100000039B68002B0CD041F27C23C2F200030F
:103B20009A6841F27C23C2F20003DB6818460199CF
:103B30009047FDF71DFCFDF74BF903B000BD00BF3A
:103B400000B583B0FDF7E4FB4FF4C043C4F20203B9
:103B50001B684FEA134303F03D0301934FF4C04346
:103B6000C4F202034FF474129A6041F27C23C2F251
:103B700000031B69002B0CD041F27C23C2F200032E
:103B80001A6941F27C23C2F200035B69184601996D
:103B90009047FDF7EDFBFDF71BF903B000BD00BF3B
:103BA00000B583B0FDF7B4FB4FF4C043C4F2020389
:103BB0001B684FEA935303F03D0301934FF4C04356
:103BC000C4F202034FF074629A6041F27C23C2F2A5
:103BD00000039B69002B0CD041F27C23C2F200034E
:103BE0009A6941F27C23C2F20003DB69184601990D
:103BF0009047FDF7BDFBFDF7EBF803B000BD00BF3C
:103C000000B583B0FDF784FB4FF4C043C4F2020358
:103C10005B6803F03D0301934FF4C043C4F2020319
:103C20004FF03D02DA6041F27C23C2F200031B6ACE
:103C3000002B0CD041F27C23C2F200031A6A41F23D
:103C40007C23C2F200035B6A184601999047FDF796
:103C50008FFBFDF7BDF803B000BD00BFAFF30080E0
:103C600000B583B0FDF754FB4FF4C043C4F2020328
:103C70005B684FEA931303F03D0301934FF4C04395
:103C8000C4F202034FF47462DA6041F27C23C2F2A0
:103C900000039B6A002B0CD041F27C23C2F200038C
:103CA0009A6A41F27C23C2F20003DB6A184601994A
:103CB0009047FDF75DFBFDF78BF803B000BD00BF3B
:103CC00000B583B0FDF724FB4FF4C043C4F20203F8
:103CD0005B684FEA134303F03D0301934FF4C04385
:103CE000C4F202034FF47412DA6041F27C23C2F290
:103CF00000031B6B002B0CD041F27C23C2F20003AB
:103D00001A6B41F27C23C2F200035B6B18460199E7
:103D10009047FDF72DFBFDF75BF803B000BD00BF3A
:103D200000B583B0FDF7F4FA4FF4C043C4F20203C8
:103D30005B684FEA935303F03D0301934FF4C04394
:103D4000C4F202034FF07462DA6041F27C23C2F2E3
:103D500000039B6B002B0CD041F27C23C2F20003CA
:103D60009A6B41F27C23C2F20003DB6B1846019987
:103D70009047FDF7FDFAFDF72BF803B000BD00BF3B
:103D800000B583B0FDF7C4FA4FF4C843C4F2020390
:103D90001B6803F03D0301934FF4C843C4F20203D0
:103DA0004FF03D029A6041F27C23C2F200031B6C8B
:103DB000002B0CD041F27C23C2F200031A6C41F2BA
:103DC0007C23C2F200035B6C184601999047FDF713
:103DD000CFFAFCF7FDFF03B000BD00BFAFF30080DA
:103DE00000B583B0FDF794FA4FF4C843C4F2020360
:103DF0001B684FEA931303F03D0301934FF4C8434C
:103E0000C4F202034FF474629A6041F27C23C2F25E
:103E100000039B6C002B0CD041F27C23C2F2000308
:103E20009A6C41F27C23C2F20003DB6C18460199C4
:103E30009047FDF79DFAFCF7CBFF03B000BD00BF34
:103E400000B583B0FDF764FA4FF4C843C4F202032F
:103E50001B684FEA134303F03D0301934FF4C8433B
:103E6000C4F202034FF474129A6041F27C23C2F24E
:103E700000031B6D002B0CD041F27C23C2F2000327
:103E80001A6D41F27C23C2F200035B6D1846019962
:103E90009047FDF76DFAFCF79BFF03B000BD00BF34
:103EA00000B583B0FDF734FA4FF4C843C4F20203FF
:103EB0001B684FEA935303F03D0301934FF4C8434B
:103EC000C4F202034FF074629A6041F27C23C2F2A2
:103ED00000039B6D002B0CD041F27C23C2F2000347
:103EE0009A6D41F27C23C2F20003DB6D1846019902
:103EF0009047FDF73DFAFCF76BFF03B000BD00BF34
:103F000000B583B0FDF704FA4FF4C843C4F20203CE
:103F10005B6803F03D0301934FF4C843C4F202030E
:103F20004FF03D02DA6041F27C23C2F200031B6EC7
:103F3000002B0CD041F27C23C2F200031A6E41F236
:103F40007C23C2F200035B6E184601999047FDF78F
:103F50000FFAFCF73DFF03B000BD00BFAFF30080D8
:103F600000B583B0FDF7D4F94FF4C843C4F202039F
:103F70005B684FEA931303F03D0301934FF4C8438A
:103F8000C4F202034FF47462DA6041F27C23C2F29D
:103F900000039B6E002B0CD041F27C23C2F2000385
:103FA0009A6E41F27C23C2F20003DB6E184601993F
:103FB0009047FDF7DDF9FCF70BFF03B000BD00BF34
:103FC00000B583B0FDF7A4F94FF4C843C4F202036F
:103FD0005B684FEA134303F03D0301934FF4C8437A
:103FE000C4F202034FF47412DA6041F27C23C2F28D
:103FF00000031B6F002B0CD041F27C23C2F20003A4
:104000001A6F41F27C23C2F200035B6F18460199DC
:104010009047FDF7ADF9FCF7DBFE03B000BD00BF34
:1040200000B583B0FDF774F94FF4C843C4F202033E
:104030005B684FEA935303F03D0301934FF4C84389
:10404000C4F202034FF07462DA6041F27C23C2F2E0
:1040500000039B6F002B0CD041F27C23C2F20003C3
:104060009A6F41F27C23C2F20003DB6F184601997C
:104070009047FDF77DF9FCF7ABFE03B000BD00BF34
:1040800082B041F27823C2F200034FF000021A60BE
:104090004FF0000301931CE04AF6D032C0F6020252
:1040A00001990B464FEA43035B184FEA8303D31889
:1040B0001B684FF000021A6041F27C23C2F2000339
:1040C000019A4FF0000143F83210019B03F1010304
:1040D0000193019B0F2BDFDD4FF4C043C4F20203B9
:1040E0004FF0FF329A604FF4C043C4F202034FF026
:1040F000FF32DA604FF4C843C4F202034FF0FF32DC
:104100009A604FF4C843C4F202034FF0FF32DA6002
:1041100002B07047AFF30080AFF30080AFF30080D0
:1041200000B585B00390029101920093039B002B90
:1041300005D14AF2E030C0F60200FDF7D9F9039B41
:104140005B7A4FF0010202FA03F31A4641F2782338
:10415000C2F200031B681340002B02D04FF0010392
:1041600080E0039B5B7A1A4641F27C23C2F2000393
:10417000019943F83210039B5B7A41F27C22C2F230
:1041800000024FEAC303D318009A5A60039B5B7A7C
:104190004FF0010202FA03F31A4641F27823C2F209
:1041A00000031B681A4341F27823C2F200031A602D
:1041B00041F27823C2F200031B68DBB2002B0BD064
:1041C0004FF46053C4F202034FF46052C4F202028F
:1041D000126B42F400121A6341F27823C2F2000318
:1041E0001B6803F47F43002B0BD04FF46053C4F2E1
:1041F00002034FF46052C4F20202126B42F48002D6
:104200001A63039B1B68039A1268126822F01F024C
:104210001A60039B1B681B6803F00103002BF8D195
:10422000039B5B68039A127A4FF03D0101FA02F298
:104230001A60039B1B684FF000021A60039B1B6807
:104240004FF021025A61019B002B09D0039B9B7AFE
:104250001A46029B4FEA031310461946FCF758FE14
:104260004FF00003184605B000BD00BFAFF300805B
:104270004FF4E043C4F200034FF4E042C4F2000202
:10428000126842F480721A604FF46053C4F2020361
:104290001B6F03F44073B3F5807F0DD04FF4605370
:1042A000C4F202034FF480321A674FF46053C4F231
:1042B00002034FF000021A674FF46053C4F2020386
:1042C0004FF46052C4F20202126F42F001021A6708
:1042D00000BF4FF46053C4F202031B6F03F00203EC
:1042E000002BF6D04FF46053C4F202031B6F03F4AB
:1042F0000043002B17D14FF46053C4F202034FF474
:104300006052C4F20202126F42F480721A674FF4D4
:104310006053C4F202034FF46052C4F20202126FFF
:1043200042F400421A674FF4E043C4F200034FF432
:10433000E042C4F20002526822F400725A607047F0
:1043400008B54FF46053C4F202031B694FF4605385
:10435000C4F202034FF0FF321A614FF46053C4F20B
:1043600002034FF000021A614FF46053C4F20203DB
:104370005B694FF46053C4F202034FF0FF325A619D
:104380004FF46053C4F202034FF000025A614FF43D
:104390006053C4F202034FF46052C4F20202126A84
:1043A00062F080521A624FF46053C4F202034FF07D
:1043B00000021A624FF46053C4F202035B6A4FF4C6
:1043C0006053C4F202034FF0FF325A624FF460535D
:1043D000C4F202034FF000025A624EF21003CEF212
:1043E000000349F23F02C0F202025A604EF210038B
:1043F000CEF200034FF000029A604EF21003CEF2AC
:1044000000034FF007021A604EF6F053CEF200039D
:104410004EF6F052CEF20002D26842F08072DA60BC
:104420004FF48053CEF200034FF48052CEF20002DC
:10443000126842F001021A604FF46053C4F20203A2
:104440004FF46052C4F20202126C42F080521A64BD
:10445000FFF70EFFFFF714FE08BD00BFAFF30080AB
:104460004FF46053C4F202034FF080521A644FF4C9
:10447000E043C4F200034FF480421A6000BF4FF4DF
:10448000E043C4F200035B6803F48043002BF6D0E2
:104490004FF46053C4F202034FF46052C4F20202BC
:1044A000126842F001021A6000BF4FF46053C4F278
:1044B00002031B6803F00203002BF6D04FF4605395
:1044C000C4F202034FF46052C4F20202126842F4D2
:1044D00080321A6000BF4FF46053C4F202031B68BD
:1044E00003F40033002BF6D04FF46053C4F2020300
:1044F0004FF46052C4F20202526F42F001025A6756
:1045000000BF4FF46053C4F202035B6F03F0020379
:10451000002BF6D04FF46053C4F2020345F21A4266
:10452000C0F240725A604FF46053C4F202034FF479
:104530006052C4F20202126842F080721A6000BF38
:104540004FF46053C4F202031B6803F00073002BA6
:10455000F6D04FF46052C4F202024FF46053C4F23A
:10456000020399684FF41443C3F608030B439360A6
:104570004FF47053C4F2020340F205721A604FF414
:104580006053C4F202034FF46052C4F20202926814
:1045900042F002029A6000BF4FF46053C4F202037B
:1045A0009B6803F00C03082BF6D14FF46053C4F260
:1045B00002034FF46052C4F20202526C42F4804291
:1045C0005A644FF46053C4F202034FF46052C4F2D1
:1045D0000202526E42F480425A667047AFF3008086
:1045E00000B585B0FCF794FE4FF40053C4F201030C
:1045F0001B6803934FF40053C4F201034FF0000211
:104600001A60039B03F02003002B6DD041F2FC23C2
:10461000C2F20003DB6A1B685B68002B64D041F2C6
:10462000FC23C2F200031B69002B5DD041F2FC2089
:10463000C2F2000000F0CCF941F2FC23C2F2000308
:104640001B699B68002B21D041F2FC23C2F20003BE
:104650004FF005021A7041F2FC23C2F200031B69FD
:104660009B6841F2FC20C2F200004FF00101984724
:1046700041F2FC23C2F200031B78052B06D141F264
:10468000FC23C2F200034FF002021A7041F2FC2335
:10469000C2F200034FF000021A614FF0200383F3CF
:1046A0001188FCF7F5FD41F2FC23C2F200035B69BF
:1046B000002B13D041F2FC23C2F200035B6902938A
:1046C00041F2FC23C2F200034FF000025A61029B48
:1046D0004FF0FF329A620298FDF732F8FCF7F8FDCE
:1046E0004FF0000383F311884FF40453C4F2010325
:1046F0001B6803934FF40453C4F201034FF000020C
:104700001A60039B03F02003002B6DD041F230337D
:10471000C2F20003DB6A1B685B68002B64D041F2C5
:104720003033C2F200031B69002B5DD041F2303000
:10473000C2F2000000F04CF941F23033C2F2000343
:104740001B699B68002B21D041F23033C2F2000379
:104750004FF005021A7041F23033C2F200031B69B8
:104760009B6841F23030C2F200004FF001019847DF
:1047700041F23033C2F200031B78052B06D141F21F
:104780003033C2F200034FF002021A7041F23033AC
:10479000C2F200034FF000021A614FF0200383F3CE
:1047A0001188FCF775FD41F23033C2F200035B69FA
:1047B000002B13D041F23033C2F200035B69019346
:1047C00041F23033C2F200034FF000025A61019B04
:1047D0004FF0FF329A620198FCF7B2FFFCF778FDC8
:1047E0004FF0000383F311884FF40853C4F2010320
:1047F0001B6803934FF40853C4F201034FF0000207
:104800001A60039B03F02003002B6DD041F2643348
:10481000C2F20003DB6A1B685B68002B64D041F2C4
:104820006433C2F200031B69002B5DD041F2643097
:10483000C2F2000000F0CCF841F26433C2F200038F
:104840001B699B68002B21D041F26433C2F2000344
:104850004FF005021A7041F26433C2F200031B6983
:104860009B6841F26430C2F200004FF001019847AA
:1048700041F26433C2F200031B78052B06D141F2EA
:104880006433C2F200034FF002021A7041F2643343
:10489000C2F200034FF000021A614FF0200383F3CD
:1048A0001188FCF7F5FC41F26433C2F200035B6946
:1048B000002B13D041F26433C2F200035B69009312
:1048C00041F26433C2F200034FF000025A61009BD0
:1048D0004FF0FF329A620098FCF732FFFCF7F8FCC9
:1048E0004FF0000383F31188FCF742FDFCF770FAE8
:1048F00005B000BDAFF30080AFF30080AFF30080E0
:1049000008B541F2FC20C2F20000FEF7F9F941F2CD
:10491000FC23C2F200034FF40052C4F201029A6277
:1049200041F2FC23C2F20003264ADA6241F2FC2380
:10493000C2F2000342F61642C0F202021A6341F2CA
:104940003030C2F20000FEF7DBF941F23033C2F240
:1049500000034FF40452C4F201029A6241F2303370
:10496000C2F20003184ADA6241F23033C2F20003A5
:1049700042F61642C0F202221A6341F26430C2F2D9
:104980000000FEF7BDF941F26433C2F200034FF4B8
:104990000852C4F201029A6241F26433C2F2000387
:1049A0000A4ADA6241F26433C2F2000342F6164266
:1049B000C0F202421A634FF012004FF05001FCF7B0
:1049C000A7FA08BD60AC020848AC02083CAC02087B
:1049D00082B00190019BDB6A1B68019AD26A12685F
:1049E000126822F01F021A60019BDB6A1B681B68B9
:1049F00003F00103002BF7D1019BDB6A5B68019A8E
:104A0000D26A127A4FF03D0101FA02F21A60019B5C
:104A10009B6A4FF000025A60019B9B6A4FF00002B4
:104A20009A60019B9B6A4FF001029A6002B0704746
:104A300008B5FCF76DFC4FF47053C4F201034FF05E
:104A400001025A6141F29833C2F200035B685B686D
:104A500041F29830C2F200004FF000019847FCF795
:104A600087FCFCF7B5F908BDAFF30080AFF3008019
:104A700008B5FCF74DFC4FF47053C4F201034FF03E
:104A800002025A6141F29833C2F200035B68DB68AC
:104A900041F29830C2F200004FF001019847FCF754
:104AA00067FCFCF795F908BDAFF30080AFF3008019
:104AB00008B5FCF72DFC4FF47053C4F201034FF01E
:104AC00004025A6141F29833C2F200035B685B69E9
:104AD00041F29830C2F200004FF002019847FCF713
:104AE00047FCFCF775F908BDAFF30080AFF3008019
:104AF00008B5FCF70DFC4FF47053C4F201034FF0FE
:104B000008025A6141F29833C2F200035B68DB6924
:104B100041F29830C2F200004FF003019847FCF7D1
:104B200027FCFCF755F908BDAFF30080AFF3008018
:104B300008B5FCF7EDFB4FF47053C4F201034FF0DE
:104B400010025A6141F29833C2F200035B685B6A5B
:104B500041F29830C2F200004FF004019847FCF790
:104B600007FCFCF735F908BDAFF30080AFF3008018
:104B700000B583B0FCF7CCFB4FF47053C4F20103D3
:104B80005B6903F4787301934FF47053C4F201032B
:104B9000019A5A61019B03F02003002B0CD041F2D3
:104BA0009833C2F200035B68DB6A41F29830C2F2CC
:104BB00000004FF005019847019B03F04003002BD4
:104BC0000CD041F29833C2F200035B685B6B41F298
:104BD0009830C2F200004FF006019847019B03F0A5
:104BE0008003002B0CD041F29833C2F200035B68C3
:104BF000DB6B41F29830C2F200004FF0070198479A
:104C0000019B03F48073002B0CD041F29833C2F265
:104C100000035B685B6C41F29830C2F200004FF019
:104C200008019847019B03F40073002B0CD041F25C
:104C30009833C2F200035B68DB6C41F29830C2F239
:104C400000004FF009019847FCF792FBFCF7C0F811
:104C500003B000BDAFF30080AFF30080AFF300807E
:104C600000B583B0FCF754FB4FF47053C4F201035A
:104C70005B6903F47C4301934FF47053C4F2010366
:104C8000019A5A61019B03F48063002B0CD041F21E
:104C90009833C2F200035B685B6D41F29830C2F258
:104CA00000004FF00A019847019B03F40063002BBA
:104CB0000CD041F29833C2F200035B68DB6D41F225
:104CC0009830C2F200004FF00B019847019B03F4AB
:104CD0008053002B0CD041F29833C2F200035B6882
:104CE0005B6E41F29830C2F200004FF00C01984721
:104CF000019B03F40053002B0CD041F29833C2F215
:104D000000035B68DB6E41F29830C2F200004FF0A6
:104D10000D019847019B03F48043002B0CD041F216
:104D20009833C2F200035B685B6F41F29830C2F2C5
:104D300000004FF00E019847019B03F40043002B45
:104D40000CD041F29833C2F200035B68DB6F41F292
:104D50009830C2F200004FF00F019847FCF708FBB3
:104D6000FCF736F803B000BDAFF30080AFF300806E
:104D700008B5FCF7CDFA4FF47053C4F201034FF4B9
:104D800080325A6141F29833C2F200035B68D3F873
:104D9000843041F29830C2F200004FF01001984781
:104DA000FCF7E6FAFCF714F808BD00BFAFF300808B
:104DB00008B5FCF7ADFA4FF47053C4F201034FF499
:104DC00000325A6141F29833C2F200035B68D3F8B3
:104DD0008C3041F29830C2F200004FF01101984738
:104DE000FCF7C6FAFBF7F4FF08BD00BFAFF3008085
:104DF00008B5FCF78DFA4FF47053C4F201034FF479
:104E000080225A6141F29833C2F200035B68D3F802
:104E1000943041F29830C2F200004FF012019847EE
:104E2000FCF7A6FAFBF7D4FF08BD00BFAFF3008084
:104E300008B5FCF76DFA4FF47053C4F201034FF458
:104E400000225A6141F29833C2F200035B68D3F842
:104E50009C3041F29830C2F200004FF013019847A5
:104E6000FCF786FAFBF7B4FF08BD00BFAFF3008084
:104E700008B5FCF74DFA4FF47053C4F201034FF438
:104E800080125A6141F29833C2F200035B68D3F892
:104E9000A43041F29830C2F200004FF0140198475C
:104EA000FCF766FAFBF794FF08BD00BFAFF3008084
:104EB00008B5FCF72DFA4FF47053C4F201034FF418
:104EC00080025A6141F29833C2F200035B68D3F862
:104ED000B43041F29830C2F200004FF0160198470A
:104EE000FCF746FAFBF774FF08BD00BFAFF3008084
:104EF00008B54FF006004FF06001FCF709F84FF0DD
:104F000007004FF06001FCF703F84FF008004FF086
:104F10006001FBF7FDFF4FF009004FF06001FBF768
:104F2000F7FF4FF00A004FF06001FBF7F1FF4FF081
:104F300017004FF06001FBF7EBFF4FF028004FF038
:104F40006001FBF7E5FF4FF001004FF06001FBF758
:104F5000DFFF4FF029004FF0F001FBF7D9FF4FF0D2
:104F60002A004FF06001FBF7D3FF4FF03E004FF0F7
:104F70006001FBF7CDFF4FF04C004FF06001FBF7F5
:104F8000C7FF4FF002004FF0F001FBF7C1FF4FF0F9
:104F900003004FF0F001FBF7BBFF08BDAFF300804B
:104FA00008B541F29830C2F20000FDF7D9FE08BD05
:104FB00000B585B00190019B1B78012B01D1FFF753
:104FC00097FF4FF00003039315E0019B5B68039A82
:104FD00053F8323003F00403002B04D001980399F6
:104FE00000F00EF803E00198039900F0F1F8039B3C
:104FF00003F101030393039B162BE6D905B000BD13
:1050000086B001900091019B5B68009A53F83230A2
:1050100003F00103002B10D04FF47053C4F20103CE
:105020004FF47052C4F201029168009A4FF00100EF
:1050300000FA02F20A439A6011E04FF47053C4F28E
:1050400001034FF47052C4F201029168009A4FF0CC
:10505000010000FA02F26FEA02020A409A60019B24
:105060005B68009A53F8323003F00203002B10D033
:105070004FF47053C4F201034FF47052C4F20102B2
:10508000D168009A4FF0010000FA02F20A43DA6098
:1050900011E04FF47053C4F201034FF47052C4F2A4
:1050A0000102D168009A4FF0010000FA02F26FEAA3
:1050B00002020A40DA60019B5A68009B4FEAC30370
:1050C000D3185B68002B22D04FF47053C4F2010355
:1050D0004FF47052C4F201021168009A4FF00100BF
:1050E00000FA02F20A431A604FF47053C4F201034B
:1050F0004FF47052C4F201025168009A4FF001005F
:1051000000FA02F26FEA02020A405A6021E04FF40C
:105110007053C4F201034FF47052C4F2010251689B
:10512000009A4FF0010000FA02F20A435A604FF46D
:105130007053C4F201034FF47052C4F201021168BB
:10514000009A4FF0010000FA02F26FEA02020A40F0
:105150001A60009B0F2B36D8009B4FEA93030593F0
:10516000009B03F003034FEA83034FF00F0202FAA0
:1051700003F36FEA03030493019B5B68009A53F8FF
:10518000323003F0F0034FEA1312009B03F00303E5
:105190004FEA830302FA03F303934FF46053C4F21C
:1051A00001034FF46052C4F20102059901F10201BA
:1051B00052F82110049A1140039A1143059A02F102
:1051C000020243F8221006B0704700BFAFF3008020
:1051D00082B0019000914FF47053C4F201034FF478
:1051E0007052C4F201021168009A4FF0010000FAF7
:1051F00002F26FEA02020A401A604FF47053C4F2DE
:1052000001034FF47052C4F201025168009A4FF04A
:10521000010000FA02F26FEA02020A405A604FF4FB
:105220007053C4F201034FF47052C4F2010291684A
:10523000009A4FF0010000FA02F26FEA02020A40FF
:105240009A604FF47053C4F201034FF47052C4F2E9
:105250000102D168009A4FF0010000FA02F26FEAF1
:1052600002020A40DA604FF47053C4F20103009A5C
:105270004FF0010101FA02F25A6102B0704700BF1B
:1052800000B585B00390029101920093039B1B6BC4
:1052900003F01003002B03D1029B4FEA4323029338
:1052A000019B012B15D903984FF01201029A009B24
:1052B00000F0EEFA0346002B08D1009B1A684EF26C
:1052C0000803CFF6FF531340002B18D04FF0010313
:1052D00017E003984FF01101029A009B00F0D8FAF2
:1052E0000346002B08D1009B1A684EF20803CFF644
:1052F000FF531340002B02D04FF0010301E04FF0A9
:105300000003184605B000BDAFF30080AFF3008086
:1053100000B585B00390029101920093039B1B6B33
:1053200003F01003002B03D1029B4FEA43230293A7
:10533000019B012B15D903984FF01901029A009B8C
:1053400000F0A6FA0346002B08D1009B1A684EF223
:105350000803CFF6FF531340002B18D04FF0010382
:1053600017E003984FF01801029A009B00F090FAA2
:105370000346002B08D1009B1A684EF20803CFF6B3
:10538000FF531340002B02D04FF0010301E04FF018
:105390000003184605B000BDAFF30080AFF30080F6
:1053A00000B585B00390029101924FF0200383F382
:1053B0001188FBF72DFF4FF43053C4F20103DB6B70
:1053C000002B1ED0039BDB6B002B05D04AF2304034
:1053D000C0F60200FCF78CF841F23023C2F2000361
:1053E0009A69039BDA634FF00200FCF7E9F9039B2B
:1053F000DB6B002B05D04AF25840C0F60200FCF7E8
:1054000077F84FF43053C4F201035B6B03F48073FD
:10541000002B08D1FBF71CFF4FF0000383F311882A
:105420004FF0010338E000BF039B5B6C1B681B68F7
:1054300003F00103002BF7D1039B5B6C5B68039ABD
:10544000526C127A4FF03D0101FA02F21A604FF4E9
:105450003053C4F2010340F2FF72C0F2C0029A63FB
:105460004FF43053C4F201034FF00002DA62FBF74D
:10547000EFFE4FF0000383F31188029B012B09D943
:1054800003984FF00C014FF00002019B00F000FA6E
:10549000034601E04FF00003184605B000BD00BF11
:1054A00084B0019000914FF000030393009B03F040
:1054B0000103002B03D0039B43F001030393009BE4
:1054C00003F00203002B03D0039B43F0020303937A
:1054D000009B03F00403002B03D0039B43F008035D
:1054E0000393009B03F00803002B03D0039B43F0BE
:1054F00004030393009B03F01003002B03D0039BD2
:1055000043F010030393009B03F02003002B03D010
:10551000039B43F020030393009B03F40073002BD1
:1055200003D0039B43F040030393019B5A6B039BFF
:105530001A43019B5A6304B0704700BFAFF3008069
:1055400000B587B00390029101924FF43053C4F23A
:1055500001035B6B0593039B5B6C5B68039A526C66
:10556000127A4FF03D0101FA02F21A60039B5B6C64
:105570001B68039A526C1268126822F01F021A60AC
:10558000039B5B6C1B681B6803F00103002BF7D1C6
:10559000039B5B6C5B68039A526C127A4FF03D017F
:1055A00001FA02F21A604FF43053C4F2010340F2E0
:1055B000FF72C0F2C0029A634FF43053C4F2010389
:1055C0004FF00002DA634FF43053C4F201034FF09E
:1055D0000002DA6203980599FFF762FF029B012B34
:1055E00007D903984FF00C014FF00002019B00F027
:1055F0004FF907B000BD00BFAFF30080AFF30080EC
:1056000008B5FBF785FE4FF0200383F31188FBF705
:105610003FFE4FF43053C4F201034FF00002DA634F
:1056200041F2A033C2F20003DB6B002B0ED041F23B
:10563000A033C2F20003DB6B1846FCF781F841F29D
:10564000A033C2F200034FF00002DA63FBF740FE22
:105650004FF0000383F31188FBF78AFEFBF7B8FBDA
:1056600008BD00BFAFF30080AFF30080AFF3008050
:1056700008B541F2A030C2F20000FDF749FD41F249
:10568000A033C2F200034FF00002DA6341F2A0330C
:10569000C2F20003054A5A6441F2A033C2F2000389
:1056A0004FF43052C4F201029A6408BD54AC0208AF
:1056B00082B001904FF43053C4F201034FF07802EE
:1056C0005A604FF43053C4F201034FF43052C4F225
:1056D0000102126842F003021A604FF43053C4F220
:1056E00001034FF43052C4F20102526842F4807256
:1056F0005A6002B0704700BFAFF30080AFF3008084
:1057000082B001904FF43053C4F201034FF4305291
:10571000C4F20102526822F0FF025A6002B07047E0
:1057200082B001904FF43053C4F201034FF00002F5
:105730005A604FF43053C4F201034FF000021A6074
:1057400002B07047AFF30080AFF30080AFF300808A
:1057500084B001900B468DF803304FF43053C4F2FF
:1057600001035B6823F4C05303939DF80330012BBE
:105770000AD0022B11D0002B18D14FF43053C4F2B1
:105780000103039A5A6011E04FF43053C4F201034D
:10579000039A42F400625A6008E04FF43053C4F2B6
:1057A0000103039A42F480525A6000BF04B070476C
:1057B00084B003900B4601928DF80B304FF43053B8
:1057C000C4F20103019A9A604FF43053C4F201030A
:1057D0009DF80B2042F48062DA6000BF4FF4305332
:1057E000C4F201035B6B03F08003002BF6D04FF48F
:1057F0003053C4F201034FF080029A6304B0704743
:1058000000B587B00390019200930B468DF80B30E2
:105810004FF43053C4F20103019A9A604FF43053AD
:10582000C4F201039DF80B2042F04002D2B242F4D0
:105830008062DA6000BF4FF43053C4F201035B6B47
:105840000593059B03F04503002BF4D04FF4305330
:10585000C4F20103059A9A63059B03F00403002B2D
:1058600006D003980599FFF71BFE4FF0010308E0EF
:105870004FF43053C4F201035A69009B1A604FF091
:105880000003184607B000BDAFF30080AFF30080FF
:1058900000B587B00390019200930B468DF80B3052
:1058A0004FF43053C4F20103019A9A604FF430531D
:1058B000C4F201039DF80B2042F04002D2B242F440
:1058C0008062DA6000BF4FF43053C4F201035B6BB7
:1058D0000593059B03F04503002BF4D04FF43053A0
:1058E000C4F20103059A9A63059B03F00503002B9C
:1058F00006D003980599FFF7D3FD4FF0010308E0A8
:105900004FF43053C4F201035A69009B1A604FF000
:105910000003184607B000BDAFF30080AFF300806E
:1059200000B587B00390019200930B468DF80B30C1
:105930004FF43053C4F20103019A9A604FF430538C
:10594000C4F201039DF80B2062F03F02D2B242F490
:105950008062DA6000BF4FF43053C4F201035B6B26
:105960000593059B03F04503002BF4D04FF430530F
:10597000C4F20103059A9A63059B03F03F03002BD1
:1059800006D003980599FFF78BFD4FF0010329E03E
:105990004FF43053C4F201031A6A009B1A60009B53
:1059A00003F1040300934FF43053C4F20103DA69A6
:1059B000009B1A60009B03F1040300934FF43053E3
:1059C000C4F201039A69009B1A60009B03F104036F
:1059D00000934FF43053C4F201035A69009B1A60DC
:1059E0004FF00003184607B000BD00BFAFF30080C2
:1059F00000B587B00390029101920093009A47F698
:105A0000FF739A4205D94AF29440C0F60200FBF7B0
:105A10006FFD4FF43053C4F201034DF2C042C0F2A7
:105A200001025A620398FDF733FB0346002B02D0B4
:105A30004FF001035CE0039B5B6C1B68019ADA602A
:105A4000039B5B6C1B68009A4FEA42224FEA92026A
:105A50005A60039B5B6C1B68039A126C1A60039B71
:105A60005B6C1B68039A526C1268126842F0010268
:105A70001A604FF43053C4F2010340F2FF72C0F2D7
:105A8000C0029A634FF43053C4F2010340F22A3249
:105A9000DA634FF43053C4F20103009A4FEA422212
:105AA0009A6205AB03980299009AFFF7E9FB034657
:105AB000002B12D14FF43053C4F201034FF09B027C
:105AC000DA6205AB039800991A46FFF769FC0346B2
:105AD000002B04D14FF000030AE000BF00E000BF3C
